{
  "_format": "hh-sol-artifact-1",
  "contractName": "Eyeballer",
  "sourceName": "contracts/Eyeballer.sol",
  "abi": [
    {
      "inputs": [
        {
          "internalType": "uint256",
          "name": "_price",
          "type": "uint256"
        }
      ],
      "stateMutability": "nonpayable",
      "type": "constructor"
    },
    {
      "inputs": [],
      "name": "ERC721EnumerableForbiddenBatchMint",
      "type": "error"
    },
    {
      "inputs": [
        {
          "internalType": "address",
          "name": "sender",
          "type": "address"
        },
        {
          "internalType": "uint256",
          "name": "tokenId",
          "type": "uint256"
        },
        {
          "internalType": "address",
          "name": "owner",
          "type": "address"
        }
      ],
      "name": "ERC721IncorrectOwner",
      "type": "error"
    },
    {
      "inputs": [
        {
          "internalType": "address",
          "name": "operator",
          "type": "address"
        },
        {
          "internalType": "uint256",
          "name": "tokenId",
          "type": "uint256"
        }
      ],
      "name": "ERC721InsufficientApproval",
      "type": "error"
    },
    {
      "inputs": [
        {
          "internalType": "address",
          "name": "approver",
          "type": "address"
        }
      ],
      "name": "ERC721InvalidApprover",
      "type": "error"
    },
    {
      "inputs": [
        {
          "internalType": "address",
          "name": "operator",
          "type": "address"
        }
      ],
      "name": "ERC721InvalidOperator",
      "type": "error"
    },
    {
      "inputs": [
        {
          "internalType": "address",
          "name": "owner",
          "type": "address"
        }
      ],
      "name": "ERC721InvalidOwner",
      "type": "error"
    },
    {
      "inputs": [
        {
          "internalType": "address",
          "name": "receiver",
          "type": "address"
        }
      ],
      "name": "ERC721InvalidReceiver",
      "type": "error"
    },
    {
      "inputs": [
        {
          "internalType": "address",
          "name": "sender",
          "type": "address"
        }
      ],
      "name": "ERC721InvalidSender",
      "type": "error"
    },
    {
      "inputs": [
        {
          "internalType": "uint256",
          "name": "tokenId",
          "type": "uint256"
        }
      ],
      "name": "ERC721NonexistentToken",
      "type": "error"
    },
    {
      "inputs": [
        {
          "internalType": "address",
          "name": "owner",
          "type": "address"
        },
        {
          "internalType": "uint256",
          "name": "index",
          "type": "uint256"
        }
      ],
      "name": "ERC721OutOfBoundsIndex",
      "type": "error"
    },
    {
      "inputs": [
        {
          "internalType": "address",
          "name": "owner",
          "type": "address"
        }
      ],
      "name": "OwnableInvalidOwner",
      "type": "error"
    },
    {
      "inputs": [
        {
          "internalType": "address",
          "name": "account",
          "type": "address"
        }
      ],
      "name": "OwnableUnauthorizedAccount",
      "type": "error"
    },
    {
      "inputs": [],
      "name": "ReentrancyGuardReentrantCall",
      "type": "error"
    },
    {
      "anonymous": false,
      "inputs": [
        {
          "indexed": true,
          "internalType": "address",
          "name": "owner",
          "type": "address"
        },
        {
          "indexed": true,
          "internalType": "address",
          "name": "approved",
          "type": "address"
        },
        {
          "indexed": true,
          "internalType": "uint256",
          "name": "tokenId",
          "type": "uint256"
        }
      ],
      "name": "Approval",
      "type": "event"
    },
    {
      "anonymous": false,
      "inputs": [
        {
          "indexed": true,
          "internalType": "address",
          "name": "owner",
          "type": "address"
        },
        {
          "indexed": true,
          "internalType": "address",
          "name": "operator",
          "type": "address"
        },
        {
          "indexed": false,
          "internalType": "bool",
          "name": "approved",
          "type": "bool"
        }
      ],
      "name": "ApprovalForAll",
      "type": "event"
    },
    {
      "anonymous": false,
      "inputs": [
        {
          "indexed": true,
          "internalType": "address",
          "name": "to",
          "type": "address"
        },
        {
          "indexed": true,
          "internalType": "uint256",
          "name": "tokenId",
          "type": "uint256"
        }
      ],
      "name": "Mint",
      "type": "event"
    },
    {
      "anonymous": false,
      "inputs": [
        {
          "indexed": true,
          "internalType": "address",
          "name": "previousOwner",
          "type": "address"
        },
        {
          "indexed": true,
          "internalType": "address",
          "name": "newOwner",
          "type": "address"
        }
      ],
      "name": "OwnershipTransferred",
      "type": "event"
    },
    {
      "anonymous": false,
      "inputs": [
        {
          "indexed": true,
          "internalType": "address",
          "name": "from",
          "type": "address"
        },
        {
          "indexed": true,
          "internalType": "address",
          "name": "to",
          "type": "address"
        },
        {
          "indexed": true,
          "internalType": "uint256",
          "name": "tokenId",
          "type": "uint256"
        }
      ],
      "name": "Transfer",
      "type": "event"
    },
    {
      "stateMutability": "payable",
      "type": "fallback"
    },
    {
      "inputs": [],
      "name": "MAX_TOKENS",
      "outputs": [
        {
          "internalType": "uint256",
          "name": "",
          "type": "uint256"
        }
      ],
      "stateMutability": "view",
      "type": "function"
    },
    {
      "inputs": [
        {
          "internalType": "address",
          "name": "to",
          "type": "address"
        },
        {
          "internalType": "uint256",
          "name": "tokenId",
          "type": "uint256"
        }
      ],
      "name": "approve",
      "outputs": [],
      "stateMutability": "nonpayable",
      "type": "function"
    },
    {
      "inputs": [
        {
          "internalType": "address",
          "name": "owner",
          "type": "address"
        }
      ],
      "name": "balanceOf",
      "outputs": [
        {
          "internalType": "uint256",
          "name": "",
          "type": "uint256"
        }
      ],
      "stateMutability": "view",
      "type": "function"
    },
    {
      "inputs": [],
      "name": "baseURI",
      "outputs": [
        {
          "internalType": "string",
          "name": "",
          "type": "string"
        }
      ],
      "stateMutability": "view",
      "type": "function"
    },
    {
      "inputs": [
        {
          "internalType": "uint256",
          "name": "tokenId",
          "type": "uint256"
        }
      ],
      "name": "getApproved",
      "outputs": [
        {
          "internalType": "address",
          "name": "",
          "type": "address"
        }
      ],
      "stateMutability": "view",
      "type": "function"
    },
    {
      "inputs": [
        {
          "internalType": "address",
          "name": "owner",
          "type": "address"
        },
        {
          "internalType": "address",
          "name": "operator",
          "type": "address"
        }
      ],
      "name": "isApprovedForAll",
      "outputs": [
        {
          "internalType": "bool",
          "name": "",
          "type": "bool"
        }
      ],
      "stateMutability": "view",
      "type": "function"
    },
    {
      "inputs": [],
      "name": "mint",
      "outputs": [],
      "stateMutability": "payable",
      "type": "function"
    },
    {
      "inputs": [],
      "name": "name",
      "outputs": [
        {
          "internalType": "string",
          "name": "",
          "type": "string"
        }
      ],
      "stateMutability": "view",
      "type": "function"
    },
    {
      "inputs": [],
      "name": "owner",
      "outputs": [
        {
          "internalType": "address",
          "name": "",
          "type": "address"
        }
      ],
      "stateMutability": "view",
      "type": "function"
    },
    {
      "inputs": [
        {
          "internalType": "uint256",
          "name": "tokenId",
          "type": "uint256"
        }
      ],
      "name": "ownerOf",
      "outputs": [
        {
          "internalType": "address",
          "name": "",
          "type": "address"
        }
      ],
      "stateMutability": "view",
      "type": "function"
    },
    {
      "inputs": [],
      "name": "price",
      "outputs": [
        {
          "internalType": "uint256",
          "name": "",
          "type": "uint256"
        }
      ],
      "stateMutability": "view",
      "type": "function"
    },
    {
      "inputs": [],
      "name": "renounceOwnership",
      "outputs": [],
      "stateMutability": "nonpayable",
      "type": "function"
    },
    {
      "inputs": [
        {
          "internalType": "address",
          "name": "from",
          "type": "address"
        },
        {
          "internalType": "address",
          "name": "to",
          "type": "address"
        },
        {
          "internalType": "uint256",
          "name": "tokenId",
          "type": "uint256"
        }
      ],
      "name": "safeTransferFrom",
      "outputs": [],
      "stateMutability": "nonpayable",
      "type": "function"
    },
    {
      "inputs": [
        {
          "internalType": "address",
          "name": "from",
          "type": "address"
        },
        {
          "internalType": "address",
          "name": "to",
          "type": "address"
        },
        {
          "internalType": "uint256",
          "name": "tokenId",
          "type": "uint256"
        },
        {
          "internalType": "bytes",
          "name": "data",
          "type": "bytes"
        }
      ],
      "name": "safeTransferFrom",
      "outputs": [],
      "stateMutability": "nonpayable",
      "type": "function"
    },
    {
      "inputs": [
        {
          "internalType": "address",
          "name": "operator",
          "type": "address"
        },
        {
          "internalType": "bool",
          "name": "approved",
          "type": "bool"
        }
      ],
      "name": "setApprovalForAll",
      "outputs": [],
      "stateMutability": "nonpayable",
      "type": "function"
    },
    {
      "inputs": [
        {
          "internalType": "string",
          "name": "_baseURI",
          "type": "string"
        }
      ],
      "name": "setBaseURI",
      "outputs": [],
      "stateMutability": "nonpayable",
      "type": "function"
    },
    {
      "inputs": [
        {
          "internalType": "uint256",
          "name": "_price",
          "type": "uint256"
        }
      ],
      "name": "setPrice",
      "outputs": [],
      "stateMutability": "nonpayable",
      "type": "function"
    },
    {
      "inputs": [
        {
          "internalType": "bytes4",
          "name": "interfaceId",
          "type": "bytes4"
        }
      ],
      "name": "supportsInterface",
      "outputs": [
        {
          "internalType": "bool",
          "name": "",
          "type": "bool"
        }
      ],
      "stateMutability": "view",
      "type": "function"
    },
    {
      "inputs": [],
      "name": "symbol",
      "outputs": [
        {
          "internalType": "string",
          "name": "",
          "type": "string"
        }
      ],
      "stateMutability": "view",
      "type": "function"
    },
    {
      "inputs": [
        {
          "internalType": "uint256",
          "name": "index",
          "type": "uint256"
        }
      ],
      "name": "tokenByIndex",
      "outputs": [
        {
          "internalType": "uint256",
          "name": "",
          "type": "uint256"
        }
      ],
      "stateMutability": "view",
      "type": "function"
    },
    {
      "inputs": [
        {
          "internalType": "address",
          "name": "owner",
          "type": "address"
        },
        {
          "internalType": "uint256",
          "name": "index",
          "type": "uint256"
        }
      ],
      "name": "tokenOfOwnerByIndex",
      "outputs": [
        {
          "internalType": "uint256",
          "name": "",
          "type": "uint256"
        }
      ],
      "stateMutability": "view",
      "type": "function"
    },
    {
      "inputs": [
        {
          "internalType": "uint256",
          "name": "tokenId",
          "type": "uint256"
        }
      ],
      "name": "tokenURI",
      "outputs": [
        {
          "internalType": "string",
          "name": "",
          "type": "string"
        }
      ],
      "stateMutability": "view",
      "type": "function"
    },
    {
      "inputs": [],
      "name": "totalSupply",
      "outputs": [
        {
          "internalType": "uint256",
          "name": "",
          "type": "uint256"
        }
      ],
      "stateMutability": "view",
      "type": "function"
    },
    {
      "inputs": [
        {
          "internalType": "address",
          "name": "from",
          "type": "address"
        },
        {
          "internalType": "address",
          "name": "to",
          "type": "address"
        },
        {
          "internalType": "uint256",
          "name": "tokenId",
          "type": "uint256"
        }
      ],
      "name": "transferFrom",
      "outputs": [],
      "stateMutability": "nonpayable",
      "type": "function"
    },
    {
      "inputs": [
        {
          "internalType": "address",
          "name": "newOwner",
          "type": "address"
        }
      ],
      "name": "transferOwnership",
      "outputs": [],
      "stateMutability": "nonpayable",
      "type": "function"
    },
    {
      "inputs": [],
      "name": "withdraw",
      "outputs": [],
      "stateMutability": "nonpayable",
      "type": "function"
    },
    {
      "inputs": [
        {
          "internalType": "address",
          "name": "tokenContract",
          "type": "address"
        }
      ],
      "name": "withdrawERC20",
      "outputs": [],
      "stateMutability": "nonpayable",
      "type": "function"
    },
    {
      "stateMutability": "payable",
      "type": "receive"
    }
  ],
  "bytecode": "0x60806040526000600c556000600d5560405180606001604052806025815260200162003c3260259139600e9081620000389190620004dc565b503480156200004657600080fd5b5060405162003c5738038062003c5783398181016040528101906200006c9190620005f9565b336040518060400160405280600981526020017f45796562616c6c657200000000000000000000000000000000000000000000008152506040518060400160405280600381526020017f45424c00000000000000000000000000000000000000000000000000000000008152508160009081620000ea9190620004dc565b508060019081620000fc9190620004dc565b505050600073ffffffffffffffffffffffffffffffffffffffff168173ffffffffffffffffffffffffffffffffffffffff1603620001745760006040517f1e4fbdf70000000000000000000000000000000000000000000000000000000081526004016200016b919062000670565b60405180910390fd5b62000185816200019c60201b60201c565b506001600b8190555080600d81905550506200068d565b6000600a60009054906101000a900473ffffffffffffffffffffffffffffffffffffffff16905081600a60006101000a81548173ffffffffffffffffffffffffffffffffffffffff021916908373ffffffffffffffffffffffffffffffffffffffff1602179055508173ffffffffffffffffffffffffffffffffffffffff168173ffffffffffffffffffffffffffffffffffffffff167f8be0079c531659141344cd1fd0a4f28419497f9722a3daafe3b4186f6b6457e060405160405180910390a35050565b600081519050919050565b7f4e487b7100000000000000000000000000000000000000000000000000000000600052604160045260246000fd5b7f4e487b7100000000000000000000000000000000000000000000000000000000600052602260045260246000fd5b60006002820490506001821680620002e457607f821691505b602082108103620002fa57620002f96200029c565b5b50919050565b60008190508160005260206000209050919050565b60006020601f8301049050919050565b600082821b905092915050565b600060088302620003647fffffffffffffffffffffffffffffffffffffffffffffffffffffffffffffffff8262000325565b62000370868362000325565b95508019841693508086168417925050509392505050565b6000819050919050565b6000819050919050565b6000620003bd620003b7620003b18462000388565b62000392565b62000388565b9050919050565b6000819050919050565b620003d9836200039c565b620003f1620003e882620003c4565b84845462000332565b825550505050565b600090565b62000408620003f9565b62000415818484620003ce565b505050565b5b818110156200043d5762000431600082620003fe565b6001810190506200041b565b5050565b601f8211156200048c57620004568162000300565b620004618462000315565b8101602085101562000471578190505b62000489620004808562000315565b8301826200041a565b50505b505050565b600082821c905092915050565b6000620004b16000198460080262000491565b1980831691505092915050565b6000620004cc83836200049e565b9150826002028217905092915050565b620004e78262000262565b67ffffffffffffffff8111156200050357620005026200026d565b5b6200050f8254620002cb565b6200051c82828562000441565b600060209050601f8311600181146200055457600084156200053f578287015190505b6200054b8582620004be565b865550620005bb565b601f198416620005648662000300565b60005b828110156200058e5784890151825560018201915060208501945060208101905062000567565b86831015620005ae5784890151620005aa601f8916826200049e565b8355505b6001600288020188555050505b505050505050565b600080fd5b620005d38162000388565b8114620005df57600080fd5b50565b600081519050620005f381620005c8565b92915050565b600060208284031215620006125762000611620005c3565b5b60006200062284828501620005e2565b91505092915050565b600073ffffffffffffffffffffffffffffffffffffffff82169050919050565b600062000658826200062b565b9050919050565b6200066a816200064b565b82525050565b60006020820190506200068760008301846200065f565b92915050565b613595806200069d6000396000f3fe6080604052600436106101a05760003560e01c80636c0360eb116100ec578063a22cb4651161008a578063e985e9c511610064578063e985e9c5146105ad578063f2fde38b146105ea578063f47c84c514610613578063f4f3b2001461063e576101a7565b8063a22cb4651461051e578063b88d4fde14610547578063c87b56dd14610570576101a7565b80638da5cb5b116100c65780638da5cb5b1461047457806391b7f5ed1461049f57806395d89b41146104c8578063a035b1fe146104f3576101a7565b80636c0360eb146103f557806370a0823114610420578063715018a61461045d576101a7565b806323b872dd1161015957806342842e0e1161013357806342842e0e146103295780634f6ccce71461035257806355f804b31461038f5780636352211e146103b8576101a7565b806323b872dd146102ac5780632f745c59146102d55780633ccfd60b14610312576101a7565b806301ffc9a7146101a957806306fdde03146101e6578063081812fc14610211578063095ea7b31461024e5780631249c58b1461027757806318160ddd14610281576101a7565b366101a757005b005b3480156101b557600080fd5b506101d060048036038101906101cb919061259d565b610667565b6040516101dd91906125e5565b60405180910390f35b3480156101f257600080fd5b506101fb6106e1565b6040516102089190612690565b60405180910390f35b34801561021d57600080fd5b50610238600480360381019061023391906126e8565b610773565b6040516102459190612756565b60405180910390f35b34801561025a57600080fd5b506102756004803603810190610270919061279d565b61078f565b005b61027f6107a5565b005b34801561028d57600080fd5b5061029661089b565b6040516102a391906127ec565b60405180910390f35b3480156102b857600080fd5b506102d360048036038101906102ce9190612807565b6108a8565b005b3480156102e157600080fd5b506102fc60048036038101906102f7919061279d565b6109aa565b60405161030991906127ec565b60405180910390f35b34801561031e57600080fd5b50610327610a53565b005b34801561033557600080fd5b50610350600480360381019061034b9190612807565b610b04565b005b34801561035e57600080fd5b50610379600480360381019061037491906126e8565b610b24565b60405161038691906127ec565b60405180910390f35b34801561039b57600080fd5b506103b660048036038101906103b1919061298f565b610b9a565b005b3480156103c457600080fd5b506103df60048036038101906103da91906126e8565b610bb5565b6040516103ec9190612756565b60405180910390f35b34801561040157600080fd5b5061040a610bc7565b6040516104179190612690565b60405180910390f35b34801561042c57600080fd5b50610447600480360381019061044291906129d8565b610c55565b60405161045491906127ec565b60405180910390f35b34801561046957600080fd5b50610472610d0f565b005b34801561048057600080fd5b50610489610d23565b6040516104969190612756565b60405180910390f35b3480156104ab57600080fd5b506104c660048036038101906104c191906126e8565b610d4d565b005b3480156104d457600080fd5b506104dd610da3565b6040516104ea9190612690565b60405180910390f35b3480156104ff57600080fd5b50610508610e35565b60405161051591906127ec565b60405180910390f35b34801561052a57600080fd5b5061054560048036038101906105409190612a31565b610e3b565b005b34801561055357600080fd5b5061056e60048036038101906105699190612b12565b610e51565b005b34801561057c57600080fd5b50610597600480360381019061059291906126e8565b610e6e565b6040516105a49190612690565b60405180910390f35b3480156105b957600080fd5b506105d460048036038101906105cf9190612b95565b610ea2565b6040516105e191906125e5565b60405180910390f35b3480156105f657600080fd5b50610611600480360381019061060c91906129d8565b610f36565b005b34801561061f57600080fd5b50610628610fbc565b60405161063591906127ec565b60405180910390f35b34801561064a57600080fd5b50610665600480360381019061066091906129d8565b610fc2565b005b60007f780e9d63000000000000000000000000000000000000000000000000000000007bffffffffffffffffffffffffffffffffffffffffffffffffffffffff1916827bffffffffffffffffffffffffffffffffffffffffffffffffffffffff191614806106da57506106d98261112b565b5b9050919050565b6060600080546106f090612c04565b80601f016020809104026020016040519081016040528092919081815260200182805461071c90612c04565b80156107695780601f1061073e57610100808354040283529160200191610769565b820191906000526020600020905b81548152906001019060200180831161074c57829003601f168201915b5050505050905090565b600061077e8261120d565b5061078882611295565b9050919050565b6107a1828261079c6112d2565b6112da565b5050565b612710600c54106107eb576040517f08c379a00000000000000000000000000000000000000000000000000000000081526004016107e290612c81565b60405180910390fd5b600d54341461082f576040517f08c379a000000000000000000000000000000000000000000000000000000000815260040161082690612ced565b60405180910390fd5b600c600081548092919061084290612d3c565b919050555061085333600c546112ec565b600c543373ffffffffffffffffffffffffffffffffffffffff167f0f6798a560793a54c3bcfe86a93cde1e73087d944c0ea20544137d412139688560405160405180910390a3565b6000600880549050905090565b600073ffffffffffffffffffffffffffffffffffffffff168273ffffffffffffffffffffffffffffffffffffffff160361091a5760006040517f64a0ae920000000000000000000000000000000000000000000000000000000081526004016109119190612756565b60405180910390fd5b600061092e83836109296112d2565b61130a565b90508373ffffffffffffffffffffffffffffffffffffffff168173ffffffffffffffffffffffffffffffffffffffff16146109a4578382826040517f64283d7b00000000000000000000000000000000000000000000000000000000815260040161099b93929190612d84565b60405180910390fd5b50505050565b60006109b583610c55565b82106109fa5782826040517fa57d13dc0000000000000000000000000000000000000000000000000000000081526004016109f1929190612dbb565b60405180910390fd5b600660008473ffffffffffffffffffffffffffffffffffffffff1673ffffffffffffffffffffffffffffffffffffffff168152602001908152602001600020600083815260200190815260200160002054905092915050565b610a5b611427565b610a636114ae565b600047905060008111610aab576040517f08c379a0000000000000000000000000000000000000000000000000000000008152600401610aa290612e30565b60405180910390fd5b610ab3610d23565b73ffffffffffffffffffffffffffffffffffffffff166108fc829081150290604051600060405180830381858888f19350505050158015610af8573d6000803e3d6000fd5b5050610b026114f4565b565b610b1f83838360405180602001604052806000815250610e51565b505050565b6000610b2e61089b565b8210610b74576000826040517fa57d13dc000000000000000000000000000000000000000000000000000000008152600401610b6b929190612dbb565b60405180910390fd5b60088281548110610b8857610b87612e50565b5b90600052602060002001549050919050565b610ba2611427565b80600e9081610bb1919061302b565b5050565b6000610bc08261120d565b9050919050565b600e8054610bd490612c04565b80601f0160208091040260200160405190810160405280929190818152602001828054610c0090612c04565b8015610c4d5780601f10610c2257610100808354040283529160200191610c4d565b820191906000526020600020905b815481529060010190602001808311610c3057829003601f168201915b505050505081565b60008073ffffffffffffffffffffffffffffffffffffffff168273ffffffffffffffffffffffffffffffffffffffff1603610cc85760006040517f89c62b64000000000000000000000000000000000000000000000000000000008152600401610cbf9190612756565b60405180910390fd5b600360008373ffffffffffffffffffffffffffffffffffffffff1673ffffffffffffffffffffffffffffffffffffffff168152602001908152602001600020549050919050565b610d17611427565b610d2160006114fe565b565b6000600a60009054906101000a900473ffffffffffffffffffffffffffffffffffffffff16905090565b610d55611427565b6000811015610d99576040517f08c379a0000000000000000000000000000000000000000000000000000000008152600401610d9090613149565b60405180910390fd5b80600d8190555050565b606060018054610db290612c04565b80601f0160208091040260200160405190810160405280929190818152602001828054610dde90612c04565b8015610e2b5780601f10610e0057610100808354040283529160200191610e2b565b820191906000526020600020905b815481529060010190602001808311610e0e57829003601f168201915b5050505050905090565b600d5481565b610e4d610e466112d2565b83836115c4565b5050565b610e5c8484846108a8565b610e6884848484611733565b50505050565b6060600e610e7b836118ea565b604051602001610e8c9291906132c0565b6040516020818303038152906040529050919050565b6000600560008473ffffffffffffffffffffffffffffffffffffffff1673ffffffffffffffffffffffffffffffffffffffff16815260200190815260200160002060008373ffffffffffffffffffffffffffffffffffffffff1673ffffffffffffffffffffffffffffffffffffffff16815260200190815260200160002060009054906101000a900460ff16905092915050565b610f3e611427565b600073ffffffffffffffffffffffffffffffffffffffff168173ffffffffffffffffffffffffffffffffffffffff1603610fb05760006040517f1e4fbdf7000000000000000000000000000000000000000000000000000000008152600401610fa79190612756565b60405180910390fd5b610fb9816114fe565b50565b61271081565b610fca611427565b610fd26114ae565b600081905060008173ffffffffffffffffffffffffffffffffffffffff166370a08231306040518263ffffffff1660e01b81526004016110129190612756565b602060405180830381865afa15801561102f573d6000803e3d6000fd5b505050506040513d601f19601f82011682018060405250810190611053919061330f565b905060008111611098576040517f08c379a000000000000000000000000000000000000000000000000000000000815260040161108f90613388565b60405180910390fd5b8173ffffffffffffffffffffffffffffffffffffffff1663a9059cbb6110bc610d23565b836040518363ffffffff1660e01b81526004016110da929190612dbb565b6020604051808303816000875af11580156110f9573d6000803e3d6000fd5b505050506040513d601f19601f8201168201806040525081019061111d91906133bd565b5050506111286114f4565b50565b60007f80ac58cd000000000000000000000000000000000000000000000000000000007bffffffffffffffffffffffffffffffffffffffffffffffffffffffff1916827bffffffffffffffffffffffffffffffffffffffffffffffffffffffff191614806111f657507f5b5e139f000000000000000000000000000000000000000000000000000000007bffffffffffffffffffffffffffffffffffffffffffffffffffffffff1916827bffffffffffffffffffffffffffffffffffffffffffffffffffffffff1916145b806112065750611205826119b8565b5b9050919050565b60008061121983611a22565b9050600073ffffffffffffffffffffffffffffffffffffffff168173ffffffffffffffffffffffffffffffffffffffff160361128c57826040517f7e27328900000000000000000000000000000000000000000000000000000000815260040161128391906127ec565b60405180910390fd5b80915050919050565b60006004600083815260200190815260200160002060009054906101000a900473ffffffffffffffffffffffffffffffffffffffff169050919050565b600033905090565b6112e78383836001611a5f565b505050565b611306828260405180602001604052806000815250611c24565b5050565b600080611318858585611c40565b9050600073ffffffffffffffffffffffffffffffffffffffff168173ffffffffffffffffffffffffffffffffffffffff160361135c5761135784611e5a565b61139b565b8473ffffffffffffffffffffffffffffffffffffffff168173ffffffffffffffffffffffffffffffffffffffff161461139a576113998185611ea3565b5b5b600073ffffffffffffffffffffffffffffffffffffffff168573ffffffffffffffffffffffffffffffffffffffff16036113dd576113d884612004565b61141c565b8473ffffffffffffffffffffffffffffffffffffffff168173ffffffffffffffffffffffffffffffffffffffff161461141b5761141a85856120d5565b5b5b809150509392505050565b61142f6112d2565b73ffffffffffffffffffffffffffffffffffffffff1661144d610d23565b73ffffffffffffffffffffffffffffffffffffffff16146114ac576114706112d2565b6040517f118cdaa70000000000000000000000000000000000000000000000000000000081526004016114a39190612756565b60405180910390fd5b565b6002600b54036114ea576040517f3ee5aeb500000000000000000000000000000000000000000000000000000000815260040160405180910390fd5b6002600b81905550565b6001600b81905550565b6000600a60009054906101000a900473ffffffffffffffffffffffffffffffffffffffff16905081600a60006101000a81548173ffffffffffffffffffffffffffffffffffffffff021916908373ffffffffffffffffffffffffffffffffffffffff1602179055508173ffffffffffffffffffffffffffffffffffffffff168173ffffffffffffffffffffffffffffffffffffffff167f8be0079c531659141344cd1fd0a4f28419497f9722a3daafe3b4186f6b6457e060405160405180910390a35050565b600073ffffffffffffffffffffffffffffffffffffffff168273ffffffffffffffffffffffffffffffffffffffff160361163557816040517f5b08ba1800000000000000000000000000000000000000000000000000000000815260040161162c9190612756565b60405180910390fd5b80600560008573ffffffffffffffffffffffffffffffffffffffff1673ffffffffffffffffffffffffffffffffffffffff16815260200190815260200160002060008473ffffffffffffffffffffffffffffffffffffffff1673ffffffffffffffffffffffffffffffffffffffff16815260200190815260200160002060006101000a81548160ff0219169083151502179055508173ffffffffffffffffffffffffffffffffffffffff168373ffffffffffffffffffffffffffffffffffffffff167f17307eab39ab6107e8899845ad3d59bd9653f200f220920489ca2b5937696c318360405161172691906125e5565b60405180910390a3505050565b60008373ffffffffffffffffffffffffffffffffffffffff163b11156118e4578273ffffffffffffffffffffffffffffffffffffffff1663150b7a026117776112d2565b8685856040518563ffffffff1660e01b8152600401611799949392919061343f565b6020604051808303816000875af19250505080156117d557506040513d601f19601f820116820180604052508101906117d291906134a0565b60015b611859573d8060008114611805576040519150601f19603f3d011682016040523d82523d6000602084013e61180a565b606091505b50600081510361185157836040517f64a0ae920000000000000000000000000000000000000000000000000000000081526004016118489190612756565b60405180910390fd5b805181602001fd5b63150b7a0260e01b7bffffffffffffffffffffffffffffffffffffffffffffffffffffffff1916817bffffffffffffffffffffffffffffffffffffffffffffffffffffffff1916146118e257836040517f64a0ae920000000000000000000000000000000000000000000000000000000081526004016118d99190612756565b60405180910390fd5b505b50505050565b6060600060016118f984612160565b01905060008167ffffffffffffffff81111561191857611917612864565b5b6040519080825280601f01601f19166020018201604052801561194a5781602001600182028036833780820191505090505b509050600082602001820190505b6001156119ad578080600190039150507f3031323334353637383961626364656600000000000000000000000000000000600a86061a8153600a85816119a1576119a06134cd565b5b04945060008503611958575b819350505050919050565b60007f01ffc9a7000000000000000000000000000000000000000000000000000000007bffffffffffffffffffffffffffffffffffffffffffffffffffffffff1916827bffffffffffffffffffffffffffffffffffffffffffffffffffffffff1916149050919050565b60006002600083815260200190815260200160002060009054906101000a900473ffffffffffffffffffffffffffffffffffffffff169050919050565b8080611a985750600073ffffffffffffffffffffffffffffffffffffffff168273ffffffffffffffffffffffffffffffffffffffff1614155b15611bcc576000611aa88461120d565b9050600073ffffffffffffffffffffffffffffffffffffffff168373ffffffffffffffffffffffffffffffffffffffff1614158015611b1357508273ffffffffffffffffffffffffffffffffffffffff168173ffffffffffffffffffffffffffffffffffffffff1614155b8015611b265750611b248184610ea2565b155b15611b6857826040517fa9fbf51f000000000000000000000000000000000000000000000000000000008152600401611b5f9190612756565b60405180910390fd5b8115611bca57838573ffffffffffffffffffffffffffffffffffffffff168273ffffffffffffffffffffffffffffffffffffffff167f8c5be1e5ebec7d5bd14f71427d1e84f3dd0314c0f7b2291e5b200ac8c7c3b92560405160405180910390a45b505b836004600085815260200190815260200160002060006101000a81548173ffffffffffffffffffffffffffffffffffffffff021916908373ffffffffffffffffffffffffffffffffffffffff16021790555050505050565b611c2e83836122b3565b611c3b6000848484611733565b505050565b600080611c4c84611a22565b9050600073ffffffffffffffffffffffffffffffffffffffff168373ffffffffffffffffffffffffffffffffffffffff1614611c8e57611c8d8184866123ac565b5b600073ffffffffffffffffffffffffffffffffffffffff168173ffffffffffffffffffffffffffffffffffffffff1614611d1f57611cd0600085600080611a5f565b6001600360008373ffffffffffffffffffffffffffffffffffffffff1673ffffffffffffffffffffffffffffffffffffffff168152602001908152602001600020600082825403925050819055505b600073ffffffffffffffffffffffffffffffffffffffff168573ffffffffffffffffffffffffffffffffffffffff1614611da2576001600360008773ffffffffffffffffffffffffffffffffffffffff1673ffffffffffffffffffffffffffffffffffffffff168152602001908152602001600020600082825401925050819055505b846002600086815260200190815260200160002060006101000a81548173ffffffffffffffffffffffffffffffffffffffff021916908373ffffffffffffffffffffffffffffffffffffffff160217905550838573ffffffffffffffffffffffffffffffffffffffff168273ffffffffffffffffffffffffffffffffffffffff167fddf252ad1be2c89b69c2b068fc378daa952ba7f163c4a11628f55a4df523b3ef60405160405180910390a4809150509392505050565b6008805490506009600083815260200190815260200160002081905550600881908060018154018082558091505060019003906000526020600020016000909190919091505550565b6000611eae83610c55565b9050600060076000848152602001908152602001600020549050818114611f93576000600660008673ffffffffffffffffffffffffffffffffffffffff1673ffffffffffffffffffffffffffffffffffffffff168152602001908152602001600020600084815260200190815260200160002054905080600660008773ffffffffffffffffffffffffffffffffffffffff1673ffffffffffffffffffffffffffffffffffffffff168152602001908152602001600020600084815260200190815260200160002081905550816007600083815260200190815260200160002081905550505b6007600084815260200190815260200160002060009055600660008573ffffffffffffffffffffffffffffffffffffffff1673ffffffffffffffffffffffffffffffffffffffff16815260200190815260200160002060008381526020019081526020016000206000905550505050565b6000600160088054905061201891906134fc565b905060006009600084815260200190815260200160002054905060006008838154811061204857612047612e50565b5b90600052602060002001549050806008838154811061206a57612069612e50565b5b9060005260206000200181905550816009600083815260200190815260200160002081905550600960008581526020019081526020016000206000905560088054806120b9576120b8613530565b5b6001900381819060005260206000200160009055905550505050565b600060016120e284610c55565b6120ec91906134fc565b905081600660008573ffffffffffffffffffffffffffffffffffffffff1673ffffffffffffffffffffffffffffffffffffffff168152602001908152602001600020600083815260200190815260200160002081905550806007600084815260200190815260200160002081905550505050565b600080600090507a184f03e93ff9f4daa797ed6e38ed64bf6a1f01000000000000000083106121be577a184f03e93ff9f4daa797ed6e38ed64bf6a1f01000000000000000083816121b4576121b36134cd565b5b0492506040810190505b6d04ee2d6d415b85acef810000000083106121fb576d04ee2d6d415b85acef810000000083816121f1576121f06134cd565b5b0492506020810190505b662386f26fc10000831061222a57662386f26fc1000083816122205761221f6134cd565b5b0492506010810190505b6305f5e1008310612253576305f5e1008381612249576122486134cd565b5b0492506008810190505b612710831061227857612710838161226e5761226d6134cd565b5b0492506004810190505b6064831061229b5760648381612291576122906134cd565b5b0492506002810190505b600a83106122aa576001810190505b80915050919050565b600073ffffffffffffffffffffffffffffffffffffffff168273ffffffffffffffffffffffffffffffffffffffff16036123255760006040517f64a0ae9200000000000000000000000000000000000000000000000000000000815260040161231c9190612756565b60405180910390fd5b60006123338383600061130a565b9050600073ffffffffffffffffffffffffffffffffffffffff168173ffffffffffffffffffffffffffffffffffffffff16146123a75760006040517f73c6ac6e00000000000000000000000000000000000000000000000000000000815260040161239e9190612756565b60405180910390fd5b505050565b6123b7838383612470565b61246b57600073ffffffffffffffffffffffffffffffffffffffff168373ffffffffffffffffffffffffffffffffffffffff160361242c57806040517f7e27328900000000000000000000000000000000000000000000000000000000815260040161242391906127ec565b60405180910390fd5b81816040517f177e802f000000000000000000000000000000000000000000000000000000008152600401612462929190612dbb565b60405180910390fd5b505050565b60008073ffffffffffffffffffffffffffffffffffffffff168373ffffffffffffffffffffffffffffffffffffffff161415801561252857508273ffffffffffffffffffffffffffffffffffffffff168473ffffffffffffffffffffffffffffffffffffffff1614806124e957506124e88484610ea2565b5b8061252757508273ffffffffffffffffffffffffffffffffffffffff1661250f83611295565b73ffffffffffffffffffffffffffffffffffffffff16145b5b90509392505050565b6000604051905090565b600080fd5b600080fd5b60007fffffffff0000000000000000000000000000000000000000000000000000000082169050919050565b61257a81612545565b811461258557600080fd5b50565b60008135905061259781612571565b92915050565b6000602082840312156125b3576125b261253b565b5b60006125c184828501612588565b91505092915050565b60008115159050919050565b6125df816125ca565b82525050565b60006020820190506125fa60008301846125d6565b92915050565b600081519050919050565b600082825260208201905092915050565b60005b8381101561263a57808201518184015260208101905061261f565b60008484015250505050565b6000601f19601f8301169050919050565b600061266282612600565b61266c818561260b565b935061267c81856020860161261c565b61268581612646565b840191505092915050565b600060208201905081810360008301526126aa8184612657565b905092915050565b6000819050919050565b6126c5816126b2565b81146126d057600080fd5b50565b6000813590506126e2816126bc565b92915050565b6000602082840312156126fe576126fd61253b565b5b600061270c848285016126d3565b91505092915050565b600073ffffffffffffffffffffffffffffffffffffffff82169050919050565b600061274082612715565b9050919050565b61275081612735565b82525050565b600060208201905061276b6000830184612747565b92915050565b61277a81612735565b811461278557600080fd5b50565b60008135905061279781612771565b92915050565b600080604083850312156127b4576127b361253b565b5b60006127c285828601612788565b92505060206127d3858286016126d3565b9150509250929050565b6127e6816126b2565b82525050565b600060208201905061280160008301846127dd565b92915050565b6000806000606084860312156128205761281f61253b565b5b600061282e86828701612788565b935050602061283f86828701612788565b9250506040612850868287016126d3565b9150509250925092565b600080fd5b600080fd5b7f4e487b7100000000000000000000000000000000000000000000000000000000600052604160045260246000fd5b61289c82612646565b810181811067ffffffffffffffff821117156128bb576128ba612864565b5b80604052505050565b60006128ce612531565b90506128da8282612893565b919050565b600067ffffffffffffffff8211156128fa576128f9612864565b5b61290382612646565b9050602081019050919050565b82818337600083830152505050565b600061293261292d846128df565b6128c4565b90508281526020810184848401111561294e5761294d61285f565b5b612959848285612910565b509392505050565b600082601f8301126129765761297561285a565b5b813561298684826020860161291f565b91505092915050565b6000602082840312156129a5576129a461253b565b5b600082013567ffffffffffffffff8111156129c3576129c2612540565b5b6129cf84828501612961565b91505092915050565b6000602082840312156129ee576129ed61253b565b5b60006129fc84828501612788565b91505092915050565b612a0e816125ca565b8114612a1957600080fd5b50565b600081359050612a2b81612a05565b92915050565b60008060408385031215612a4857612a4761253b565b5b6000612a5685828601612788565b9250506020612a6785828601612a1c565b9150509250929050565b600067ffffffffffffffff821115612a8c57612a8b612864565b5b612a9582612646565b9050602081019050919050565b6000612ab5612ab084612a71565b6128c4565b905082815260208101848484011115612ad157612ad061285f565b5b612adc848285612910565b509392505050565b600082601f830112612af957612af861285a565b5b8135612b09848260208601612aa2565b91505092915050565b60008060008060808587031215612b2c57612b2b61253b565b5b6000612b3a87828801612788565b9450506020612b4b87828801612788565b9350506040612b5c878288016126d3565b925050606085013567ffffffffffffffff811115612b7d57612b7c612540565b5b612b8987828801612ae4565b91505092959194509250565b60008060408385031215612bac57612bab61253b565b5b6000612bba85828601612788565b9250506020612bcb85828601612788565b9150509250929050565b7f4e487b7100000000000000000000000000000000000000000000000000000000600052602260045260246000fd5b60006002820490506001821680612c1c57607f821691505b602082108103612c2f57612c2e612bd5565b5b50919050565b7f74686174277320656e6f7567682065796562616c6c7300000000000000000000600082015250565b6000612c6b60168361260b565b9150612c7682612c35565b602082019050919050565b60006020820190508181036000830152612c9a81612c5e565b9050919050565b7f73656e642074686520726967687420616d6f756e74206f662045544800000000600082015250565b6000612cd7601c8361260b565b9150612ce282612ca1565b602082019050919050565b60006020820190508181036000830152612d0681612cca565b9050919050565b7f4e487b7100000000000000000000000000000000000000000000000000000000600052601160045260246000fd5b6000612d47826126b2565b91507fffffffffffffffffffffffffffffffffffffffffffffffffffffffffffffffff8203612d7957612d78612d0d565b5b600182019050919050565b6000606082019050612d996000830186612747565b612da660208301856127dd565b612db36040830184612747565b949350505050565b6000604082019050612dd06000830185612747565b612ddd60208301846127dd565b9392505050565b7f6e6f204554482062616c616e6365000000000000000000000000000000000000600082015250565b6000612e1a600e8361260b565b9150612e2582612de4565b602082019050919050565b60006020820190508181036000830152612e4981612e0d565b9050919050565b7f4e487b7100000000000000000000000000000000000000000000000000000000600052603260045260246000fd5b60008190508160005260206000209050919050565b60006020601f8301049050919050565b600082821b905092915050565b600060088302612ee17fffffffffffffffffffffffffffffffffffffffffffffffffffffffffffffffff82612ea4565b612eeb8683612ea4565b95508019841693508086168417925050509392505050565b6000819050919050565b6000612f28612f23612f1e846126b2565b612f03565b6126b2565b9050919050565b6000819050919050565b612f4283612f0d565b612f56612f4e82612f2f565b848454612eb1565b825550505050565b600090565b612f6b612f5e565b612f76818484612f39565b505050565b5b81811015612f9a57612f8f600082612f63565b600181019050612f7c565b5050565b601f821115612fdf57612fb081612e7f565b612fb984612e94565b81016020851015612fc8578190505b612fdc612fd485612e94565b830182612f7b565b50505b505050565b600082821c905092915050565b600061300260001984600802612fe4565b1980831691505092915050565b600061301b8383612ff1565b9150826002028217905092915050565b61303482612600565b67ffffffffffffffff81111561304d5761304c612864565b5b6130578254612c04565b613062828285612f9e565b600060209050601f8311600181146130955760008415613083578287015190505b61308d858261300f565b8655506130f5565b601f1984166130a386612e7f565b60005b828110156130cb578489015182556001820191506020850194506020810190506130a6565b868310156130e857848901516130e4601f891682612ff1565b8355505b6001600288020188555050505b505050505050565b7f7072696365206d757374206265206e6f6e2d6e65676174697665000000000000600082015250565b6000613133601a8361260b565b915061313e826130fd565b602082019050919050565b6000602082019050818103600083015261316281613126565b9050919050565b600081905092915050565b6000815461318181612c04565b61318b8186613169565b945060018216600081146131a657600181146131bb576131ee565b60ff19831686528115158202860193506131ee565b6131c485612e7f565b60005b838110156131e6578154818901526001820191506020810190506131c7565b838801955050505b50505092915050565b7f2f00000000000000000000000000000000000000000000000000000000000000600082015250565b600061322d600183613169565b9150613238826131f7565b600182019050919050565b600061324e82612600565b6132588185613169565b935061326881856020860161261c565b80840191505092915050565b7f2e6a736f6e000000000000000000000000000000000000000000000000000000600082015250565b60006132aa600583613169565b91506132b582613274565b600582019050919050565b60006132cc8285613174565b91506132d782613220565b91506132e38284613243565b91506132ee8261329d565b91508190509392505050565b600081519050613309816126bc565b92915050565b6000602082840312156133255761332461253b565b5b6000613333848285016132fa565b91505092915050565b7f6e6f20746f6b656e2062616c616e636500000000000000000000000000000000600082015250565b600061337260108361260b565b915061337d8261333c565b602082019050919050565b600060208201905081810360008301526133a181613365565b9050919050565b6000815190506133b781612a05565b92915050565b6000602082840312156133d3576133d261253b565b5b60006133e1848285016133a8565b91505092915050565b600081519050919050565b600082825260208201905092915050565b6000613411826133ea565b61341b81856133f5565b935061342b81856020860161261c565b61343481612646565b840191505092915050565b60006080820190506134546000830187612747565b6134616020830186612747565b61346e60408301856127dd565b81810360608301526134808184613406565b905095945050505050565b60008151905061349a81612571565b92915050565b6000602082840312156134b6576134b561253b565b5b60006134c48482850161348b565b91505092915050565b7f4e487b7100000000000000000000000000000000000000000000000000000000600052601260045260246000fd5b6000613507826126b2565b9150613512836126b2565b925082820390508181111561352a57613529612d0d565b5b92915050565b7f4e487b7100000000000000000000000000000000000000000000000000000000600052603160045260246000fdfea26469706673582212209144d725bbba8b55c29eca81df787d7914555fa16e8cffa0a39d8913db95f29364736f6c6343000818003368747470733a2f2f65796562616c6c65722e7265706c69742e6170702f6d65746164617461",
  "linkReferences": {},
  "deployedLinkReferences": {}
}